:03000000020CD619
:0C0CD600787FE4F6D8FD758132020D1D18
:0E0F56004C6967687420636F756E7465720075
:060F820001320001310004
:030F8900DFFE2266
:100F2000AE07AF061EEF600C7FF5120F897FF5123A
:050F30000F8980EE2294
:100F460075A0FFC287D286C28500D285E5A033226E
:0C0EEB007F38120EF77F05120F207F38B1
:100EF700120F4640FBC287C286D2858FA000C285EB
:010F070022C7
:100F3500120F4640FBD287C286D2858FA000C2859C
:010F45002289
:0A0F64007F01120EF77F05020F2037
:100EA400AE07ED7005EE24808003EE24C0FF120E21
:100EB400F7120ADFFF600C120F35740129F9E43AC6
:040EC400FA80EE22A0
:100F0800AE07AC03ED7005EE24808003EE24C0FF2D
:080F1800120EF7AF04020F35C1
:100EC800120EEB7F05120F20120EEB7F08120EF7A1
:100ED8007F01120EF77F06120EF71F120F207F0CEC
:030EE800020EF700
:0A0F6E007F05120F207F0D020EF721
:0A0F78007F05120F207F0C020EF718
:100E4F00AB07AD31AF32120F080532E53275F01036
:100E5F00120ABD2531FF75F002120ABD85F031E58A
:0B0E6F003275F010120ABD85F032222F
:040DD5008F2EAA05AE
:100DD900EB540FF530EBC4540FF52FE4F9742F29B8
:100DE900F8E6C36480948A742F500829F874302671
:100DF900F6800629F8745726F6E52E29FFAD027408
:0C0E09002F29F8E6FB120F0809B902D1EE
:010E150022BA
:100D62008F0E8D0FE4F510E47B0AFAF9F8AF0DAEA1
:100D72000CAD0BAC0A120B34EB2430FF74112510AE
:100D8200F8A607AF0DAE0CAD0BAC0AE47B0AFAF97C
:100D9200F8120B348F0D8E0C8D0B8C0A0510E4FFAC
:100DA200FEFDFCAB0DAA0CA90BA80AD3120BD45062
:100DB200B6E4F9E9C395105019E50E29FFE9FDE5FE
:100DC20010C39DFD74102DF8E6FBAD0F120F08093C
:020DD20080E1BE
:010DD40022FC
:080E16008F2C8E2B8D2A8C29F4
:100E1E00AF2CAE2BAD2AAC29E47B0AFAF9F8120BF3
:100E2E00348F2C8E2B8D2A8C29052DE4FFFEFDFC94
:100E3E00AB2CAA2BA92AA829D3120BD450D2AF2D92
:010E4E002281
:040BE5008F1B8D1CB9
:100BE900E4752501F524F523F522AF20AE1FAD1ECE
:100BF900AC1D120A3C8F258E248D238C228F0D8EDD
:100C09000C8D0B8C0AAD1CAF1B120D62AF25AE24E7
:100C1900AD23AC22120E168F27E51B2527FF7B2E4D
:100C2900AD1C120F08AF20AE1FAD1EAC1DC004C015
:100C390005C006C007AF25AE24AD23AC22E41209D6
:100C4900FEA804A905AA06AB07D007D006D005D08F
:100C5900041208038F208E1F8D1E8C1DE4F526E5D6
:100C690026C395215066AF20AE1FAD1EAC1DE4FB17
:100C7900FA792078411208F88F208E1F8D1E8C1D5D
:100C8900120A3C8F28E51B2527042526FFE5282481
:100C990030FBAD1C120F08AF20AE1FAD1EAC1DC03E
:100CA90004C005C006C007AC28E4120A08A804A9B4
:100CB90005AA06AB07D007D006D005D00412080351
:0C0CC9008F208E1F8D1E8C1D0526809331
:010CD50022FC
:100E7A00120EC87BFF7A0F7956E4FDFF120EA4C248
:100E8A009730970B7B317D01E4FF120F0880F27BCC
:0A0E9A00307D01E4FF120F0880E72D
:10080000020AA8E86480F8E933E83360110460F074
:10081000ED33EC337009E8FCE9FDEAFEEBFF22045E
:1008200060DED3EB9FEA9EE99DE8C2E78CF0C2F759
:1008300095F0400CE8CCF8E9CDF9EACEFAEBCFFB25
:10084000120A7385D0F05804700320D5B3E8047001
:10085000075002B2D5020AB292D5EC0460F7E4CC9C
:10086000C0E0C398F8603B94186008400DD0E0FBEE
:10087000020A8AE4FBFAC9FC8028E830E406E4C9ED
:10088000FBE4CAFCE830E305E4C9CACBFCE8540742
:100890006010F8C3E913F9EA13FAEB13FBEC13FC4D
:1008A000D8F130F52FC3E49CFCEF9BFFEE9AFEEDF0
:1008B00099FDD0E0FBEF4E4D4C701222DB03020A93
:1008C000AFEC2CFCEF33FFEE33FEED33FDED30E704
:1008D000EB020A8AEF2BFFEE3AFEED39FDD0E0FB8A
:1008E00050130BBB0003020AB2ED13FDEE13FEEF33
:0808F00013FFEC13FC020A8A5D
:1008F800EC4D6011E8497017ED33EC3304600DE4FA
:10090800FCFFFEFD22E933E8330470F8020AA8125E
:100918000A7358046009E4CC24815006285009025F
:100928000AB2284003020AAFC0E0EB4A7044B9801B
:1009380006D0E0FB020A9EEF4E701CBD8008EBFF5C
:10094800EAFEE9FD80EBE98DF0A4FEE5F00209E19D
:10095800E9CDF9EAFEEBFFEF89F0A4FCE5F0CE89DA
:10096800F0A42EFFE435F0CD89F0A42DFEE435F097
:100978008067EF4E7005BD80D780C3EF8BF0A4ACC5
:10098800F0EE8BF0A42CFCE435F0F8EF8AF0A42C00
:10099800E5F038FCE433CB8DF0A42CFCE5F03BF813
:1009A800EE8AF0A42CFCE5F038F8E433CF89F0A403
:1009B8002CFCE5F038CF3400CE89F0A42FFFE5F009
:1009C8003EFEE433C98DF0A42EFEE5F039CD8AF061
:1009D800A42FFFE5F03EFEE43DFD33D0E0FB5007D9
:1009E8000BBB000F020AB2EC2CFCEF33FFEE33FE18
:0609F800ED33FD020A8A46
:1009FE0075F020800E75F010800575F0087D007E74
:100A0E00007F003392D530D503120BC6EC33401065
:100A1E00EF33FFEE33FEED33FDEC33FCD5F0ED227C
:0E0A2E00E5F0247EA2D513CC92E7CDCEFF22B8
:100A3C00EDD2E7CD33EC3392D524814006E4FFFEB2
:100A4C00FDFC22FCE4CFCECDCC24E0501174FF8011
:100A5C00EDC3CC13CCCD13CDCE13CECF13CF0470AE
:070A6C00F030D5DE020BC6DD
:100A7300E9D2E7C933E833F892D5EDD2E7CD33ECC9
:070A830033FC5002B2D52242
:100A8A00EC30E7100FBF000C0EBE00080DBD0004CD
:100A9A000BEB6014A2D5EB13FCED92E7FD2274FF79
:100AAA00FCFDFEFF22E480F8A2D574FF13FC7D80D2
:030ABA00E480EFE6
:100CE200020E7AE493A3F8E493A34003F68001F2A0
:100CF20008DFF48029E493A3F85407240CC8C33313
:100D0200C4540F4420C8834004F456800146F6DFE1
:100D1200E4800B0102040810204080900F82E47EE0
:100D2200019360BCA3FF543F30E509541FFEE493D6
:100D3200A360010ECF54C025E060A840B8E493A39D
:100D4200FAE493A3F8E493A3C8C582C8CAC583CAC8
:100D5200F0A3C8C582C8CAC583CADFE9DEE780BE80
:010F88000068
:100ABD00C2D530F707B2D563F0FF05F030E70CB2C1
:100ACD00D5F4048463F0FF05F080018430D502F481
:020ADD000422F1
:100ADF00BB010689828A83E0225002E722BBFE0215
:090AEF00E32289828A83E4932248
:100AF80075F008758200EF2FFFEE33FECD33CDCCB5
:100B080033CCC58233C5829BED9AEC99E582984037
:100B18000CF582EE9BFEED9AFDEC99FC0FD5F0D614
:100B2800E4CEFBE4CDFAE4CCF9A88222B800C1B93E
:100B38000059BA002DEC8BF084CFCECDFCE5F0CB7C
:100B4800F97818EF2FFFEE33FEED33FDEC33FCEBB5
:100B580033FB10D703994004EB99FB0FD8E5E4F970
:100B6800FA227818EF2FFFEE33FEED33FDEC33FC5D
:100B7800C933C910D7059BE99A4007EC9BFCE99A51
:100B8800F90FD8E0E4C9FAE4CCFB2275F010EF2F96
:100B9800FFEE33FEED33FDCC33CCC833C810D70796
:100BA8009BEC9AE899400AED9BFDEC9AFCE899F8D1
:0E0BB8000FD5F0DAE4CDFBE4CCFAE4C8F92264
:0E0BC600C3E49FFFE49EFEE49DFDE49CFC2240
:100BD400EB9FF5F0EA9E42F0E99D42F0E89C45F077
:010BE40022EE
:00000001FF
