:0910C500414443303833323A0053
:0610CE00013400013300B3
:0310DA00DFFE2214
:10107A00AE07AF061EEF600C7FF51210DA7FF5128D
:05108A0010DA80EE22E7
:1010A0007580FFC2B7D2B6C2B500D2B5E580332293
:0C102C007F381210387F0512107A7F38D0
:101038001210A040FBC2B7C2B6D2B58F8000C2B5AD
:011048002285
:10108F001210A040FBD2B7C2B6D2B58F8000C2B546
:01109F00222E
:0A10BB007F011210387F0502107A41
:100FE500AE07ED7005EE24808003EE24C0FF1210DD
:100FF50038120B7FFF600C12108F740129F9E43A47
:04100500FA80EE225D
:10106200AE07AC03ED7005EE24808003EE24C0FFD2
:08107200121038AF0402108FC8
:1010090012102C7F0512107A12102C7F081210383A
:101019007F011210387F061210381F12107A7F0CC8
:031029000210387A
:100FBA00AB07AD33AF341210620534E53475F01067
:100FCA00120B5D2533FF75F002120B5D85F033E5D8
:0B0FDA003475F010120B5D85F034221E
:040F40008F30AA053F
:100F4400EB540FF532EBC4540FF531E4F974312945
:100F5400F8E6C36480948A7431500829F874302602
:100F6400F6800629F8745726F6E53029FFAD027499
:0C0F74003129F8E6FB12106209B902D125
:010F8000224E
:100E87008F238D24E4F525E47B0AFAF9F8AF22AE27
:100E970021AD20AC1F120BD4EB2430FF742625257F
:100EA700F8A607AF22AE21AD20AC1FE47B0AFAF902
:100EB700F8120BD48F228E218D208C1F0525E4FF7D
:100EC700FEFDFCAB22AA21A920A81FD3120C745047
:100ED700B6E4F9E9C395255019E52329FFE9FDE5AE
:100EE70025C39DFD74252DF8E6FBAD24121062097C
:020EF70080E198
:010EF90022D6
:080F81008F208E1F8D1E8C1DB8
:100F8900AF20AE1FAD1EAC1DE47B0AFAF9F8120BB7
:100F9900D48F208E1F8D1E8C1D0521E4FFFEFDFCC4
:100FA900AB20AA1FA91EA81DD3120C7450D2AF21C1
:010FB9002215
:040C85008F0F8D1030
:100C8900E4751901F518F517F516AF14AE13AD1281
:100C9900AC11120ADC8F198E188D178C168F228EC3
:100CA900218D208C1FAD10AF0F120E87AF19AE1812
:100CB900AD17AC16120F818F1BE50F251BFF7B2E7D
:100CC900AD10121062AF14AE13AD12AC11C004C056
:100CD90005C006C007AF19AE18AD17AC16E4120A65
:100CE9009EA804A905AA06AB07D007D006D005D04F
:100CF900041208038F148E138D128C11E4F51AE572
:100D09001AC395155066AF14AE13AD12AC11E4FBBE
:100D1900FA792078411208F88F148E138D128C11EC
:100D2900120ADC8F1CE50F251B04251AFFE51C247C
:100D390030FBAD10121062AF14AE13AD12AC11C07E
:100D490004C005C006C007AC1CE4120AA8A804A97F
:100D590005AA06AB07D007D006D005D004120803B0
:0C0D69008F148E138D128C11051A8093CC
:010D7500225B
:0B10B000EF1FAC0670011E4C70F62212
:0510D500D291D294222B
:101049007F0A7E001210B0C2947F0A7E001210B08F
:09105900D2947F0A7E000210B05F
:100EFA00E4FDFBD292C291121049D292121049C259
:100F0A0092121049121049E4FAED25E0FDA293E489
:100F1A0033F92DFD1210490ABA08EE121049E4FA03
:100F2A00EB25E0FBA293E4332BFB1210490ABA0823
:050F3A00EFD291AF05AC
:010F3F00228F
:100E02001210D51210097BFF7A1079C5E4FDFF128A
:020E12000FE5EA
:100E1400120EFA8F0EAC0EE4120AA8E4FBFAF9786B
:100E240043120A01E4FBFA79A078401208F88F0D06
:100E34008E0C8D0B8C0AAF0EE4FCFDFE120F817537
:100E440008008F09C3E5099407E50864809480507D
:100E540013AF097B207D011210620509E50970E4D6
:100E6400050880E0850D14850C13850B12850A1185
:100E7400751503E4FD7F08120C857F887E1312101C
:010E8400B0BD
:020E8500808D5E
:10080000020B48E86480F8E933E83360110460F0D3
:10081000ED33EC337009E8FCE9FDEAFEEBFF22045E
:1008200060DED3EB9FEA9EE99DE8C2E78CF0C2F759
:1008300095F0400CE8CCF8E9CDF9EACEFAEBCFFB25
:10084000120B1385D0F05804700320D5B3E8047060
:10085000075002B2D5020B5292D5EC0460F7E4CCFB
:10086000C0E0C398F8603B94186008400DD0E0FBEE
:10087000020B2AE4FBFAC9FC8028E830E406E4C94C
:10088000FBE4CAFCE830E305E4C9CACBFCE8540742
:100890006010F8C3E913F9EA13FAEB13FBEC13FC4D
:1008A000D8F130F52FC3E49CFCEF9BFFEE9AFEEDF0
:1008B00099FDD0E0FBEF4E4D4C701222DB03020B92
:1008C0004FEC2CFCEF33FFEE33FEED33FDED30E764
:1008D000EB020B2AEF2BFFEE3AFEED39FDD0E0FBE9
:1008E00050130BBB0003020B52ED13FDEE13FEEF92
:0808F00013FFEC13FC020B2ABC
:1008F800EC4D6011E8497017ED33EC3304600DE4FA
:10090800FCFFFEFD22E933E8330470F8020B4812BD
:100918000B1358046009E4CC2481500628500902BE
:100928000B52284003020B4FC0E0EB4A7044B980D9
:1009380006D0E0FB020B3EEF4E701CBD8008EBFFBB
:10094800EAFEE9FD80EBE98DF0A4FEE5F00209E19D
:10095800E9CDF9EAFEEBFFEF89F0A4FCE5F0CE89DA
:10096800F0A42EFFE435F0CD89F0A42DFEE435F097
:100978008067EF4E7005BD80D780C3EF8BF0A4ACC5
:10098800F0EE8BF0A42CFCE435F0F8EF8AF0A42C00
:10099800E5F038FCE433CB8DF0A42CFCE5F03BF813
:1009A800EE8AF0A42CFCE5F038F8E433CF89F0A403
:1009B8002CFCE5F038CF3400CE89F0A42FFFE5F009
:1009C8003EFEE433C98DF0A42EFEE5F039CD8AF061
:1009D800A42FFFE5F03EFEE43DFD33D0E0FB5007D9
:1009E8000BBB000F020B52EC2CFCEF33FFEE33FE77
:0609F800ED33FD020B2AA5
:1009FE00020B52EC5D046005E859047003020B48CB
:100A0E00120B13580460F6EC4860F2EC7004FDFE15
:100A1E00FF22C860DB2481C85009C39860025006CB
:100A2E00020B4F9850CAF582E9294B4A7005AB82EA
:100A3E00020B3E75F0007C1A7880C3EF9BEE9AEDA8
:100A4E0099400DC3EF9BFFEE9AFEED99FDE842F043
:100A5E00DC23ACF0D0E0FFD0E0FED0E0FDAB822096
:100A6E00E7101BEB60BAEC2CFCEF33FFEE33FEED20
:100A7E0033FD020B2AE803F830E705C0F075F000ED
:100A8E00EF2FFFEE33FEED33FD40B830E7C280AA04
:100A9E0075F020800E75F010800575F0087D007ED3
:100AAE00007F003392D530D503120C66EC33401024
:100ABE00EF33FFEE33FEED33FDEC33FCD5F0ED22DC
:0E0ACE00E5F0247EA2D513CC92E7CDCEFF2218
:100ADC00EDD2E7CD33EC3392D524814006E4FFFE12
:100AEC00FDFC22FCE4CFCECDCC24E0501174FF8071
:100AFC00EDC3CC13CCCD13CDCE13CECF13CF04700E
:070B0C00F030D5DE020C669B
:100B1300E9D2E7C933E833F892D5EDD2E7CD33EC28
:070B230033FC5002B2D522A1
:100B2A00EC30E7100FBF000C0EBE00080DBD00042C
:100B3A000BEB6014A2D5EB13FCED92E7FD2274FFD8
:100B4A00FCFDFEFF22E480F8A2D574FF13FC7D8031
:030B5A00E480EF45
:03000000020D7678
:0C0D7600787FE4F6D8FD758134020DBDD5
:100B5D00C2D530F707B2D563F0FF05F030E70CB220
:100B6D00D5F4048463F0FF05F080018430D502F4E0
:020B7D00042250
:100B7F00BB010689828A83E0225002E722BBFE0274
:090B8F00E32289828A83E49322A7
:100B980075F008758200EF2FFFEE33FECD33CDCC14
:100BA80033CCC58233C5829BED9AEC99E582984097
:100BB8000CF582EE9BFEED9AFDEC99FC0FD5F0D674
:100BC800E4CEFBE4CDFAE4CCF9A88222B800C1B99E
:100BD8000059BA002DEC8BF084CFCECDFCE5F0CBDC
:100BE800F97818EF2FFFEE33FEED33FDEC33FCEB15
:100BF80033FB10D703994004EB99FB0FD8E5E4F9D0
:100C0800FA227818EF2FFFEE33FEED33FDEC33FCBC
:100C1800C933C910D7059BE99A4007EC9BFCE99AB0
:100C2800F90FD8E0E4C9FAE4CCFB2275F010EF2FF5
:100C3800FFEE33FEED33FDCC33CCC833C810D707F5
:100C48009BEC9AE899400AED9BFDEC9AFCE899F830
:0E0C58000FD5F0DAE4CDFBE4CCFAE4C8F922C3
:0E0C6600C3E49FFFE49EFEE49DFDE49CFC229F
:100C7400EB9FF5F0EA9E42F0E99D42F0E89C45F0D6
:010C8400224D
:100D8200020E02E493A3F8E493A34003F68001F277
:100D920008DFF48029E493A3F85407240CC8C33372
:100DA200C4540F4420C8834004F456800146F6DF41
:100DB200E4800B01020408102040809010CEE47EF3
:100DC200019360BCA3FF543F30E509541FFEE49336
:100DD200A360010ECF54C025E060A840B8E493A3FD
:100DE200FAE493A3F8E493A3C8C582C8CAC583CA28
:100DF200F0A3C8C582C8CAC583CADFE9DEE780BEE0
:0110D400001B
:00000001FF
