:03000000020DA34B
:0C0DA300787FE4F6D8FD758134020DEA7B
:0A11740074656D703A0043202000FE
:0C115200013100012E0001306E012FEC75
:03117E00DFFE226F
:10111C00AE07AF061EEF600C7FF512117E7FF51245
:05112C00117E80EE229F
:1011420075A0FFC287D286C28500D285E5A0332270
:0C10E7007F381210F37F0512111C7F38B7
:1010F30012114240FBC287C286D2858FA000C285EF
:0111030022C9
:1011310012114240FBD287C286D2858FA000C285A0
:01114100228B
:0A116A007F011210F37F0502111C33
:10108200AE07ED7005EE24808003EE24C0FF12103F
:10109200F3120B7FFF600C121131740129F9E43A4B
:0410A200FA80EE22C0
:10110400AE07AC03ED7005EE24808003EE24C0FF2F
:081114001210F3AF04021131C7
:1010A6001210E77F0512111C1210E77F081210F3C9
:1010B6007F011210F37F061210F31F12111C7F0C12
:0310C6000210F322
:10100600AB07AD2EAF311211040531E53175F01085
:10101600120B5D252EFF75F002120B5D85F02EE595
:0B1026003175F010120B5D85F03122D7
:040F4D008F32AA0530
:100F5100EB540FF534EBC4540FF533E4F974332932
:100F6100F8E6C36480948A7433500829F8743026F3
:100F7100F6800629F8745726F6E53229FFAD02748A
:0C0F81003329F8E6FB12110409B902D173
:010F8D002241
:100E2F008F218D22E4F523E47B0AFAF9F8AF20AE87
:100E3F001FAD1EAC1D120C01EB2430FF74242523B3
:100E4F00F8A607AF20AE1FAD1EAC1DE47B0AFAF962
:100E5F00F8120C018F208E1F8D1E8C1D0523E4FFB1
:100E6F00FEFDFCAB20AA1FA91EA81DD3120CA1507A
:100E7F00B6E4F9E9C395235019E52129FFE9FDE50A
:100E8F0023C39DFD74232DF8E6FBAD221211040937
:020E9F0080E1F0
:010EA100222E
:080FCD008F1E8E1D8D1C8C1B74
:100FD500AF1EAE1DAD1CAC1BE47B0AFAF9F8120C72
:100FE500018F1E8E1D8D1C8C1B051FE4FFFEFDFC55
:100FF500AB1EAA1DA91CA81BD3120CA150D2AF1F52
:0110050022C8
:040CB2008F0D8D0E07
:100CB600E4751701F516F515F514AF12AE11AD1062
:100CC600AC0F120ADC8F178E168D158C148F208EA2
:100CD6001F8D1E8C1DAD0EAF0D120E2FAF17AE164B
:100CE600AD15AC14120FCD8F19E50D2519FF7B2E0E
:100CF600AD0E121104AF12AE11AD10AC0FC004C090
:100D060005C006C007AF17AE16AD15AC14E4120A3F
:100D16009EA804A905AA06AB07D007D006D005D021
:100D2600041208038F128E118D108C0FE4F518E54E
:100D360018C395135066AF12AE11AD10AC0FE4FB9D
:100D4600FA792078411208F88F128E118D108C0FC7
:100D5600120ADC8F1AE50D2519042518FFE51A2459
:100D660030FBAD0E121104AF12AE11AD10AC0FC0B8
:100D760004C005C006C007AC1AE4120AA8A804A954
:100D860005AA06AB07D007D006D005D00412080383
:0C0D96008F128E118D108C0F05188093A9
:010DA200222E
:0B115F00EF1FAC0670011E4C70F62262
:10105A00E4FDD2B47F08FE12115FC2B47F507E0055
:10106A0012115FD2B47F0E7E0012115FA2B4E43374
:08107A00FD7F147E0002115FEE
:1010C900E4FB7D08C2B4EBC313FBD2B430B40343D1
:0D10D90003807F047E0012115FDDE9AF038C
:0110E60022E7
:0F1031001210407F507E0012115F12105A7FCCB8
:02104000AD07FA
:101042007B08C2B4ED1392B47F057E0012115FD209
:07105200B4EDC313FDDBEB5D
:011059002274
:060F8E008F0FA903AA0564
:100F940012103B7F4E121040AF0F121040AF0212DE
:100FA4001040AF011210317F441210317FBE121075
:100FB400407F507E0012115F1210C98F101210C9A9
:080FC4008F117B007A00791007
:010FCC002202
:100EA2007E007C3F7B3FAD2FAF30120F8E120B7F47
:100EB200F50D900001120B98F50EE50D540FFCE4B0
:100EC200120AA8E4FBFA79807841120A01C004C030
:100ED20005C006C007E50E540775F010A4FFE50D26
:100EE200C4540F7C002FFDEC35F0FCE4120AA3D0B1
:0A0EF20003D002D001D0001208075F
:010EFC0022D3
:0F0EFD001210A67BFF7A117974E4FDFF121082A8
:100F0C00120EA28F0C8E0B8D0A8C098F128E118DE6
:100F1C00108C0F751302E4FD7F05120CB2AF0CAEF2
:100F2C000BAD0AAC09120ADC120FCDEF2406FF7BC5
:0F0F3C00FF7A11797AE4FD1210827FFF12111CE7
:020F4B0080BF65
:10080000020B48E86480F8E933E83360110460F0D3
:10081000ED33EC337009E8FCE9FDEAFEEBFF22045E
:1008200060DED3EB9FEA9EE99DE8C2E78CF0C2F759
:1008300095F0400CE8CCF8E9CDF9EACEFAEBCFFB25
:10084000120B1385D0F05804700320D5B3E8047060
:10085000075002B2D5020B5292D5EC0460F7E4CCFB
:10086000C0E0C398F8603B94186008400DD0E0FBEE
:10087000020B2AE4FBFAC9FC8028E830E406E4C94C
:10088000FBE4CAFCE830E305E4C9CACBFCE8540742
:100890006010F8C3E913F9EA13FAEB13FBEC13FC4D
:1008A000D8F130F52FC3E49CFCEF9BFFEE9AFEEDF0
:1008B00099FDD0E0FBEF4E4D4C701222DB03020B92
:1008C0004FEC2CFCEF33FFEE33FEED33FDED30E764
:1008D000EB020B2AEF2BFFEE3AFEED39FDD0E0FBE9
:1008E00050130BBB0003020B52ED13FDEE13FEEF92
:0808F00013FFEC13FC020B2ABC
:1008F800EC4D6011E8497017ED33EC3304600DE4FA
:10090800FCFFFEFD22E933E8330470F8020B4812BD
:100918000B1358046009E4CC2481500628500902BE
:100928000B52284003020B4FC0E0EB4A7044B980D9
:1009380006D0E0FB020B3EEF4E701CBD8008EBFFBB
:10094800EAFEE9FD80EBE98DF0A4FEE5F00209E19D
:10095800E9CDF9EAFEEBFFEF89F0A4FCE5F0CE89DA
:10096800F0A42EFFE435F0CD89F0A42DFEE435F097
:100978008067EF4E7005BD80D780C3EF8BF0A4ACC5
:10098800F0EE8BF0A42CFCE435F0F8EF8AF0A42C00
:10099800E5F038FCE433CB8DF0A42CFCE5F03BF813
:1009A800EE8AF0A42CFCE5F038F8E433CF89F0A403
:1009B8002CFCE5F038CF3400CE89F0A42FFFE5F009
:1009C8003EFEE433C98DF0A42EFEE5F039CD8AF061
:1009D800A42FFFE5F03EFEE43DFD33D0E0FB5007D9
:1009E8000BBB000F020B52EC2CFCEF33FFEE33FE77
:0609F800ED33FD020B2AA5
:1009FE00020B52EC5D046005E859047003020B48CB
:100A0E00120B13580460F6EC4860F2EC7004FDFE15
:100A1E00FF22C860DB2481C85009C39860025006CB
:100A2E00020B4F9850CAF582E9294B4A7005AB82EA
:100A3E00020B3E75F0007C1A7880C3EF9BEE9AEDA8
:100A4E0099400DC3EF9BFFEE9AFEED99FDE842F043
:100A5E00DC23ACF0D0E0FFD0E0FED0E0FDAB822096
:100A6E00E7101BEB60BAEC2CFCEF33FFEE33FEED20
:100A7E0033FD020B2AE803F830E705C0F075F000ED
:100A8E00EF2FFFEE33FEED33FD40B830E7C280AA04
:100A9E0075F020800E75F010800575F0087D007ED3
:100AAE00007F003392D530D503120C93EC334010F7
:100ABE00EF33FFEE33FEED33FDEC33FCD5F0ED22DC
:0E0ACE00E5F0247EA2D513CC92E7CDCEFF2218
:100ADC00EDD2E7CD33EC3392D524814006E4FFFE12
:100AEC00FDFC22FCE4CFCECDCC24E0501174FF8071
:100AFC00EDC3CC13CCCD13CDCE13CECF13CF04700E
:070B0C00F030D5DE020C936E
:100B1300E9D2E7C933E833F892D5EDD2E7CD33EC28
:070B230033FC5002B2D522A1
:100B2A00EC30E7100FBF000C0EBE00080DBD00042C
:100B3A000BEB6014A2D5EB13FCED92E7FD2274FFD8
:100B4A00FCFDFEFF22E480F8A2D574FF13FC7D8031
:030B5A00E480EF45
:100DAF00020EFDE493A3F8E493A34003F68001F24F
:100DBF0008DFF48029E493A3F85407240CC8C33345
:100DCF00C4540F4420C8834004F456800146F6DF14
:100DDF00E4800B0102040810204080901152E47E41
:100DEF00019360BCA3FF543F30E509541FFEE49309
:100DFF00A360010ECF54C025E060A840B8E493A3D0
:100E0F00FAE493A3F8E493A3C8C582C8CAC583CAFA
:100E1F00F0A3C8C582C8CAC583CADFE9DEE780BEB2
:01115E000090
:100B5D00C2D530F707B2D563F0FF05F030E70CB220
:100B6D00D5F4048463F0FF05F080018430D502F4E0
:020B7D00042250
:100B7F00BB010689828A83E0225002E722BBFE0274
:090B8F00E32289828A83E49322A7
:100B9800BB010CE58229F582E5833AF583E0225012
:100BA80006E92582F8E622BBFE06E92582F8E2225C
:0D0BB800E58229F582E5833AF583E4932276
:100BC50075F008758200EF2FFFEE33FECD33CDCCE7
:100BD50033CCC58233C5829BED9AEC99E58298406A
:100BE5000CF582EE9BFEED9AFDEC99FC0FD5F0D647
:100BF500E4CEFBE4CDFAE4CCF9A88222B800C1B971
:100C05000059BA002DEC8BF084CFCECDFCE5F0CBAE
:100C1500F97818EF2FFFEE33FEED33FDEC33FCEBE7
:100C250033FB10D703994004EB99FB0FD8E5E4F9A2
:100C3500FA227818EF2FFFEE33FEED33FDEC33FC8F
:100C4500C933C910D7059BE99A4007EC9BFCE99A83
:100C5500F90FD8E0E4C9FAE4CCFB2275F010EF2FC8
:100C6500FFEE33FEED33FDCC33CCC833C810D707C8
:100C75009BEC9AE899400AED9BFDEC9AFCE899F803
:0E0C85000FD5F0DAE4CDFBE4CCFAE4C8F92296
:0E0C9300C3E49FFFE49EFEE49DFDE49CFC2272
:100CA100EB9FF5F0EA9E42F0E99D42F0E89C45F0A9
:010CB1002220
:00000001FF
