:03000000020800F3
:0C080000787FE4F6D8FD758116020847E9
:10090400020DF7D10408FEFDFBF7040FE0D0B07030
:1008DE008F13E513D39400400A75147DD514FD15BE
:0408EE001380EF2262
:03000B00020932B5
:09093200758CF7758AD1B2903280
:03000300020924CB
:0E092400C0E0C0D0B2901208DED0D0D0E032D9
:1008F200C2A9758901758CF7758AD1D28CD2AFD213
:02090200A92228
:07094D00D2AFD2A8D288222C
:03095900B2902237
:09093B00C2B7C2B6D2B58F9022FA
:09094400D2B7C2B6D2B58F9022E1
:0F0915007F3812093B7F0F12093B7F0702093B16
:050954007F0102093BD8
:10088C00E4F5901209541209157F61120944E4F53C
:10089C001674082516F8E6F5A085A00C530CF0E5A7
:1008AC000C64F060227F0A1208DEE50C64F060171D
:1008BC001208DEE4F515740F2515F8E6650C6007D3
:1008CC000515E515B404EF0516E516C3940440C1EF
:0208DC0080BCDE
:10080C0002088CE493A3F8E493A34003F68001F26E
:10081C0008DFF48029E493A3F85407240CC8C333ED
:10082C00C4540F4420C8834004F456800146F6DFBC
:10083C00E4800B0102040810204080900904E47E3F
:10084C00019360BCA3FF543F30E509541FFEE493B1
:10085C00A360010ECF54C025E060A840B8E493A378
:10086C00FAE493A3F8E493A3C8C582C8CAC583CAA3
:10087C00F0A3C8C582C8CAC583CADFE9DEE780BE5B
:0109140000E2
:00000001FF
