:03000000020CD619
:0C0CD600787FE4F6D8FD758165020D1DE5
:0D0FB1004D696E645265616465725F3200C7
:060FED00013B00013A0087
:030FF900DFFE22F6
:100F6A00AE07AF061EEF600C7FF5120FF97FF51280
:050F7A000FF980EE22DA
:100FA10075A0FFC287D286C28500D285E5A0332213
:0C0F35007F38120F417F05120F6A7F38D1
:100F4100120FA140FBC287C286D2858FA000C28545
:010F5100227D
:100F7F00120FA140FBD287C286D2858FA000C285F7
:010F8F00223F
:0A0FBE007F01120F417F05020F6A48
:100ECD00AE07ED7005EE24808003EE24C0FF120FF7
:100EDD0041120ADFFF600C120F7F740129F9E43A09
:040EED00FA80EE2277
:100F5200AE07AC03ED7005EE24808003EE24C0FFE3
:080F6200120F41AF04020F7FE2
:100EF100120F357F05120F6A120F357F08120F414D
:100F01007F01120F417F06120F411F120F6A7F0CE2
:030F1100020F418B
:0A0FC8007F05120F6A7F0D020F4132
:0A0FD2007F05120F6A7F0C020F4129
:100EA200AB07AD3AAF3B120F52053BE53B75F01075
:100EB200120ABD253AFF75F002120ABD85F03AE525
:0B0EC2003B75F010120ABD85F03B22CA
:040E28008F63AA0525
:100E2C00EB540FF565EBC4540FF564E4F9746429C5
:100E3C00F8E6C36480948A7464500829F8743026E8
:100E4C00F6800629F8745726F6E56329FFAD02747F
:0C0E5C006429F8E6FB120F5209B902D11C
:010E68002267
:100D62008F438D44E4F545E47B0AFAF9F8AF42AECD
:100D720041AD40AC3F120B34EB2430FF74462545A5
:100D8200F8A607AF42AE41AD40AC3FE47B0AFAF9A8
:100D9200F8120B348F428E418D408C3F0545E4FFA3
:100DA200FEFDFCAB42AA41A940A83FD3120BD4508E
:100DB200B6E4F9E9C395455019E54329FFE9FDE594
:100DC20045C39DFD74452DF8E6FBAD44120F520953
:020DD20080E1BE
:010DD40022FC
:080E69008F618E608D5F8C5ECD
:100E7100AF61AE60AD5FAC5EE47B0AFAF9F8120BCC
:100E8100348F618E608D5F8C5E0562E4FFFEFDFC38
:100E9100AB61AA60A95FA85ED3120BD450D2AF6236
:010EA100222E
:040BE5008F508D514F
:100BE900E4755A01F559F558F557AF55AE54AD535B
:100BF900AC52120A3C8F5A8E598D588C578F428E9F
:100C0900418D408C3FAD51AF50120D62AF5AAE5974
:100C1900AD58AC57120E698F5CE550255CFF7B2EF1
:100C2900AD51120F52AF55AE54AD53AC52C004C0C2
:100C390005C006C007AF5AAE59AD58AC57E4120902
:100C4900FEA804A905AA06AB07D007D006D005D08F
:100C5900041208038F558E548D538C52E4F55BE5CD
:100C69005BC395565066AF55AE54AD53AC52E4FBD9
:100C7900FA792078411208F88F558E548D538C5289
:100C8900120A3C8F5DE550255C04255BFFE55D2478
:100C990030FBAD51120F52AF55AE54AD53AC52C0EB
:100CA90004C005C006C007AC5DE4120A08A804A97F
:100CB90005AA06AB07D007D006D005D00412080351
:0C0CC9008F558E548D538C52055B809328
:010CD50022FC
:100F900075985075C83475CADC75CBFFD2ACD2AF2A
:010FA000222E
:080FE5008F993099FDC2992299
:040FF400AF99C29857
:010FF80022D6
:090FDC00E4FF120FE5F53CD322FD
:100F1400E4FD3098FD120FF4AE077408253CF8A6E2
:100F240006053CBEAA07BDAA04E4F53C22AD068032
:010F3400E1DB
:100DD500120F90120EF17BFF7A0F79B1E4FDFF122D
:100DE5000ECD120FC8120FDC120F14AB097D01E4F2
:100DF500FF120E28AB0A7D017F02120E28AB257D5E
:100E0500017F05120E28AB267D017F07120E28AB48
:100E1500277D017F0A120E28AB287D017F0C120E5B
:030E25002880C55D
:10080000020AA8E86480F8E933E83360110460F074
:10081000ED33EC337009E8FCE9FDEAFEEBFF22045E
:1008200060DED3EB9FEA9EE99DE8C2E78CF0C2F759
:1008300095F0400CE8CCF8E9CDF9EACEFAEBCFFB25
:10084000120A7385D0F05804700320D5B3E8047001
:10085000075002B2D5020AB292D5EC0460F7E4CC9C
:10086000C0E0C398F8603B94186008400DD0E0FBEE
:10087000020A8AE4FBFAC9FC8028E830E406E4C9ED
:10088000FBE4CAFCE830E305E4C9CACBFCE8540742
:100890006010F8C3E913F9EA13FAEB13FBEC13FC4D
:1008A000D8F130F52FC3E49CFCEF9BFFEE9AFEEDF0
:1008B00099FDD0E0FBEF4E4D4C701222DB03020A93
:1008C000AFEC2CFCEF33FFEE33FEED33FDED30E704
:1008D000EB020A8AEF2BFFEE3AFEED39FDD0E0FB8A
:1008E00050130BBB0003020AB2ED13FDEE13FEEF33
:0808F00013FFEC13FC020A8A5D
:1008F800EC4D6011E8497017ED33EC3304600DE4FA
:10090800FCFFFEFD22E933E8330470F8020AA8125E
:100918000A7358046009E4CC24815006285009025F
:100928000AB2284003020AAFC0E0EB4A7044B9801B
:1009380006D0E0FB020A9EEF4E701CBD8008EBFF5C
:10094800EAFEE9FD80EBE98DF0A4FEE5F00209E19D
:10095800E9CDF9EAFEEBFFEF89F0A4FCE5F0CE89DA
:10096800F0A42EFFE435F0CD89F0A42DFEE435F097
:100978008067EF4E7005BD80D780C3EF8BF0A4ACC5
:10098800F0EE8BF0A42CFCE435F0F8EF8AF0A42C00
:10099800E5F038FCE433CB8DF0A42CFCE5F03BF813
:1009A800EE8AF0A42CFCE5F038F8E433CF89F0A403
:1009B8002CFCE5F038CF3400CE89F0A42FFFE5F009
:1009C8003EFEE433C98DF0A42EFEE5F039CD8AF061
:1009D800A42FFFE5F03EFEE43DFD33D0E0FB5007D9
:1009E8000BBB000F020AB2EC2CFCEF33FFEE33FE18
:0609F800ED33FD020A8A46
:1009FE0075F020800E75F010800575F0087D007E74
:100A0E00007F003392D530D503120BC6EC33401065
:100A1E00EF33FFEE33FEED33FDEC33FCD5F0ED227C
:0E0A2E00E5F0247EA2D513CC92E7CDCEFF22B8
:100A3C00EDD2E7CD33EC3392D524814006E4FFFEB2
:100A4C00FDFC22FCE4CFCECDCC24E0501174FF8011
:100A5C00EDC3CC13CCCD13CDCE13CECF13CF0470AE
:070A6C00F030D5DE020BC6DD
:100A7300E9D2E7C933E833F892D5EDD2E7CD33ECC9
:070A830033FC5002B2D52242
:100A8A00EC30E7100FBF000C0EBE00080DBD0004CD
:100A9A000BEB6014A2D5EB13FCED92E7FD2274FF79
:100AAA00FCFDFEFF22E480F8A2D574FF13FC7D80D2
:030ABA00E480EFE6
:100CE200020DD5E493A3F8E493A34003F68001F246
:100CF20008DFF48029E493A3F85407240CC8C33313
:100D0200C4540F4420C8834004F456800146F6DFE1
:100D1200E4800B0102040810204080900FEDE47E75
:100D2200019360BCA3FF543F30E509541FFEE493D6
:100D3200A360010ECF54C025E060A840B8E493A39D
:100D4200FAE493A3F8E493A3C8C582C8CAC583CAC8
:100D5200F0A3C8C582C8CAC583CADFE9DEE780BE80
:010FF30000FD
:100ABD00C2D530F707B2D563F0FF05F030E70CB2C1
:100ACD00D5F4048463F0FF05F080018430D502F481
:020ADD000422F1
:100ADF00BB010689828A83E0225002E722BBFE0215
:090AEF00E32289828A83E4932248
:100AF80075F008758200EF2FFFEE33FECD33CDCCB5
:100B080033CCC58233C5829BED9AEC99E582984037
:100B18000CF582EE9BFEED9AFDEC99FC0FD5F0D614
:100B2800E4CEFBE4CDFAE4CCF9A88222B800C1B93E
:100B38000059BA002DEC8BF084CFCECDFCE5F0CB7C
:100B4800F97818EF2FFFEE33FEED33FDEC33FCEBB5
:100B580033FB10D703994004EB99FB0FD8E5E4F970
:100B6800FA227818EF2FFFEE33FEED33FDEC33FC5D
:100B7800C933C910D7059BE99A4007EC9BFCE99A51
:100B8800F90FD8E0E4C9FAE4CCFB2275F010EF2F96
:100B9800FFEE33FEED33FDCC33CCC833C810D70796
:100BA8009BEC9AE899400AED9BFDEC9AFCE899F8D1
:0E0BB8000FD5F0DAE4CDFBE4CCFAE4C8F92264
:0E0BC600C3E49FFFE49EFEE49DFDE49CFC2240
:100BD400EB9FF5F0EA9E42F0E99D42F0E89C45F077
:010BE40022EE
:00000001FF
