:030000000209A74B
:0C09A700787FE4F6D8FD7581440209EE6B
:060C4B0052656C617900A6
:100B4D000140000121001E2270786D782B557278BE
:100B5D004C4B52782D4430783132337834353678E9
:060B6D00373839000000DA
:030C5100DFFE22A1
:100BF000AE07AF061EEF600C7FF5120C517FF512A9
:050C00000C5180EE2202
:100C160075A0FFC287D286C28500D285E5A03322A1
:0C0BBB007F38120BC77F05120BF07F384B
:100BC700120C1640FBC287C286D2858FA000C28551
:010BD70022FB
:100C0500120C1640FBD287C286D2858FA000C28502
:010C150022BC
:0A0C32007F01120BC77F05020BF0D3
:100B7400AE07ED7005EE24808003EE24C0FF120B57
:100B8400C7120822FF600C120C05740129F9E43A1B
:040B9400FA80EE22D3
:100BD800AE07AC03ED7005EE24808003EE24C0FF61
:080BE800120BC7AF04020C055B
:100B9800120BBB7F05120BF0120BBB7F08120BC7A1
:100BA8007F01120BC77F06120BC71F120BF07F0CB9
:030BB800020BC766
:100B2200AB07AD21AF40120BD80540E54075F01080
:100B32001208002521FF75F00212080085F021E558
:0B0B42004075F01012080085F0402202
:060A33008B088A09890A04
:100A3900E4F50BF50CAB07AA067C007D0AAF03AE03
:100A49000212085DED2430FF740D250BF8A6077C12
:100A5900007D0AAF03AE0212085DAA06AB07050BBB
:100A6900D3EB9400EA6480948050CEE50BD39400D4
:100A7900401B740C250BF8E6AB08AA09A90A850CDA
:100A89008275830012083B050C150B80DEAB08AAA2
:0D0A990009A90A850C82758300E402083B60
:040AA6008F17AA05F7
:100AAA00EB540FF519EBC4540FF518E4F97418292F
:100ABA00F8E6C36480948A7418500829F8743026BA
:100ACA00F6800629F8745726F6E51729FFAD027451
:0C0ADA001829F8E6FB120BD809B902D16C
:010AE60022ED
:0C0C2600D2AFD2AAD28A758910C2002277
:070C4400AE071FEE70FA225B
:030013000208E8F8
:1008E800C0E0C0D075D000C000C004C005C006C0BC
:0108F80007F8
:1008F900758B00758D00D28E20B30F7F0A120C44C0
:10090900E58DD3942840F1020998C28EE58DC394F0
:100919001E407C758D00D28E30B30E7F0A120C44B6
:10092900E58DD3941940F18066E4FDE4FC758D00F2
:10093900D28E20B30E7F0A120C44E58DD3940F405A
:10094900F1804C758D0030B30E7F0A120C44E58D91
:10095900D3940F40F18038C28E74412DF8C000E65F
:10096900C313D000F6E58DD39404400874412DF8E3
:10097900E64480F60CBC08B50DED640470ADE543A2
:0F0989002544FFE433FEEFF44E7002D200C28F1C
:0F099800D007D006D005D004D000D0D0D0E032A8
:080C3C0074222543F8E6FF22B3
:100AE700120B987BFF7A0C794BE4FDFF120B741203
:060AF7000C26D290D29102
:100AFD003000FD120C3C8F1AAB1AE4FD7F0C120B6B
:100B0D00D8120C3CBF3102B290120C3CBF3202B273
:030B1D0091C20082
:020B200080DB78
:1009B300020AE7E493A3F8E493A34003F68001F269
:1009C30008DFF48029E493A3F85407240CC8C33345
:1009D300C4540F4420C8834004F456800146F6DF14
:1009E300E4800B0102040810204080900B4DE47E4C
:1009F300019360BCA3FF543F30E509541FFEE49309
:100A0300A360010ECF54C025E060A840B8E493A3CF
:100A1300FAE493A3F8E493A3C8C582C8CAC583CAFA
:100A2300F0A3C8C582C8CAC583CADFE9DEE780BEB2
:010B73000081
:10080000C2D530F707B2D563F0FF05F030E70CB280
:10081000D5F4048463F0FF05F080018430D502F440
:020820000422B0
:10082200BB010689828A83E0225002E722BBFE02D4
:09083200E32289828A83E4932207
:10083B00F8BB010DE58229F582E5833AF583E8F0F3
:10084B00225006E92582C8F622BBFE05E92582C89F
:02085B00F22287
:10085D00C2D5EC30E709B2D5E4C39DFDE49CFCEEB6
:10086D0030E715B2D5E4C39FFFE49EFE120893C393
:10087D00E49DFDE49CFC800312089330D507C3E48E
:06088D009FFFE49EFE2225
:10089300BC000BBE0029EF8DF084FFADF022E4CC49
:1008A300F875F008EF2FFFEE33FEEC33FCEE9DEC12
:1008B300984005FCEE9DFE0FD5F0E9E4CEFD22ED58
:1008C300F8F5F0EE8420D21CFEADF075F008EF2FA2
:1008D300FFED33FD4007985006D5F0F222C398FD93
:0508E3000FD5F0EA2230
:00000001FF
