:03000000020A975A
:0C0A9700787FE4F6D8FD758161020ADE6C
:070EA3004C697374656E00D9
:100D6600014700012B000421FEFDFBF7044DE0D0F6
:100D7600B070103731323341343536423738394363
:100D86002A302344023201B802250000042700005D
:020D960000005B
:030EAA00DFFE2246
:100E4000AE07AF061EEF600C7FF5120EAA7FF512FB
:050E50000EAA80EE2255
:100E7A007580FFC2B7D2B6C2B500D2B5E5803322BB
:0C0E0B007F38120E177F05120E407F3852
:100E1700120E7A40FBC2B7C2B6D2B58F8000C2B5F8
:010E270022A8
:100E6900120E7A40FBD2B7C2B6D2B58F8000C2B596
:010E79002256
:0A0E99007F01120E177F05020E40C4
:100DC400AE07ED7005EE24808003EE24C0FF120E02
:100DD40017120822FF600C120E69740129F9E43A13
:040DE400FA80EE2281
:100E2800AE07AC03ED7005EE24808003EE24C0FF0E
:080E3800120E17AF04020E694F
:100DE800120E0B7F05120E40120E0B7F08120E1703
:100DF8007F01120E177F06120E171F120E407F0C6E
:030E0800020E17C0
:100D9900AB07AD2BAF47120E280547E54775F01095
:100DA900120800252BFF75F00212080085F02BE5CB
:0B0DB9004775F01012080085F047227B
:060B23008B088A09890A13
:100B2900E4F50BF50CAB07AA067C007D0AAF03AE12
:100B3900021208B2ED2430FF740D250BF8A6077CCC
:100B4900007D0AAF03AE021208B2AA06AB07050B75
:100B5900D3EB9400EA6480948050CEE50BD39400E3
:100B6900401B740C250BF8E6AB08AA09A90A850CE9
:100B79008275830012083B050C150B80DEAB08AAB1
:0D0B890009A90A850C82758300E402083B6F
:040D25008F17AA0575
:100D2900EB540FF519EBC4540FF518E4F9741829AD
:100D3900F8E6C36480948A7418500829F874302638
:100D4900F6800629F8745726F6E51729FFAD0274CF
:0C0D59001829F8E6FB120E2809B902D197
:010D6500226B
:100B96008F558D56E4F557D3EB9400EA940040291F
:100BA6007C007D0AAF03AE0212085DED2430FF74AF
:100BB600582557F8A6077C007D0AAF03AE02120837
:100BC6005DAA06AB07055780CEE4F9E9C3955750F1
:100BD60019E55529FFE9FDE557C39DFD74572DF825
:0C0BE600E6FBAD56120E280980E1AF5767
:010BF20022E0
:100E55008F51E551D39400400A75527DD552FD1549
:040E65005180EF22A7
:100C4500E4F55474212554F8E6F5A085A034533411
:100C5500F0E53464F0602F7F0A120E55E53464F038
:100C65006024120E55E4F553744D2553F8E6B5345A
:100C75000EE55425E025E025532437F8E6FF220547
:100C850053E553B404E20554E554C3940440B480D9
:010C9500AFAF
:03000B00020BF3F2
:100BF300C0E0C0F0C083C082C0D075D000C000C0C8
:100C030001C002C003C004C005C006C007E52FFF32
:100C1300E48F8AFB7A01F9F8AF2FAE2EAD2DAC2C01
:100C23001209738F8CB290D007D006D005D004D0B0
:100C330003D002D001D000D0D0D082D083D0F0D066
:020C4300E0329D
:100A0500E4F525F526F52AF529F528F527F58BF5DD
:100A15008DD28EA2939201300138200035AF8DEF33
:100A2500FEAD8B7C00E42DF531EC3EF530FEE4FDAA
:100A3500E52A2531F52AE5293EF529ED3528F5285C
:100A4500EC3527F527E4F58BF58D0526E5267002AF
:100A55000525D3E52694C8E5259400402FAE25AF9E
:100A650026E4FCFDFB7A10790EF81208E8AB2AAAF9
:100A750029A928A8271209738E4B8F4CE4F525F573
:100A850026F52AF529F528F527C28E22A20192001E
:020A950080815E
:0F0E8A00D2AFE4F58AF58CD2A9D28C75890122FA
:100C9600120DE87BFF7A0E79A3E4FDFF120DC41254
:100CA6000E8AAE32AF33AB07AA06E4F9F8FF7E1020
:100CB6007D0EFC120CE1C3E49FFFE49EFE74019DD1
:100CC600FDE49C8F2F8E2E8D2DF52C120A05AA067B
:0B0CD600AB077D01E4FF120B9680F0DD
:100AA300020C96E493A3F8E493A34003F68001F2C7
:100AB30008DFF48029E493A3F85407240CC8C33354
:100AC300C4540F4420C8834004F456800146F6DF23
:100AD300E4800B0102040810204080900D66E47E40
:100AE300019360BCA3FF543F30E509541FFEE49318
:100AF300A360010ECF54C025E060A840B8E493A3DF
:100B0300FAE493A3F8E493A3C8C582C8CAC583CA09
:100B1300F0A3C8C582C8CAC583CADFE9DEE780BEC1
:010D9800005A
:10080000C2D530F707B2D563F0FF05F030E70CB280
:10081000D5F4048463F0FF05F080018430D502F440
:020820000422B0
:10082200BB010689828A83E0225002E722BBFE02D4
:09083200E32289828A83E4932207
:10083B00F8BB010DE58229F582E5833AF583E8F0F3
:10084B00225006E92582C8F622BBFE05E92582C89F
:02085B00F22287
:10085D00BC000BBE0029EF8DF084FFADF022E4CC7F
:10086D00F875F008EF2FFFEE33FEEC33FCEE9DEC48
:10087D00984005FCEE9DFE0FD5F0E9E4CEFD22ED8E
:10088D00F8F5F0EE8420D21CFEADF075F008EF2FD8
:10089D00FFED33FD4007985006D5F0F222C398FDC9
:0508AD000FD5F0EA2266
:1008B200C2D5EC30E709B2D5E4C39DFDE49CFCEE61
:1008C20030E715B2D5E4C39FFFE49EFE12085DC374
:1008D200E49DFDE49CFC800312085D30D507C3E46F
:0608E2009FFFE49EFE22D0
:1008E800E88FF0A4CC8BF0A42CFCE98EF0A42CFCAF
:1008F8008AF0EDA42CFCEA8EF0A4CDA8F08BF0A42D
:100908002DCC3825F0FDE98FF0A42CCD35F0FCEB8B
:100918008EF0A4FEA9F0EB8FF0A4CFC5F02ECD3950
:0F092800FEE43CFCEAA42DCE35F0FDE43CFC22BD
:1009370075F008758200EF2FFFEE33FECD33CDCC77
:1009470033CCC58233C5829BED9AEC99E5829840FA
:100957000CF582EE9BFEED9AFDEC99FC0FD5F0D6D7
:10096700E4CEFBE4CDFAE4CCF9A88222B800C1B901
:100977000059BA002DEC8BF084CFCECDFCE5F0CB3F
:10098700F97818EF2FFFEE33FEED33FDEC33FCEB78
:1009970033FB10D703994004EB99FB0FD8E5E4F933
:1009A700FA227818EF2FFFEE33FEED33FDEC33FC20
:1009B700C933C910D7059BE99A4007EC9BFCE99A14
:1009C700F90FD8E0E4C9FAE4CCFB2275F010EF2F59
:1009D700FFEE33FEED33FDCC33CCC833C810D70759
:1009E7009BEC9AE899400AED9BFDEC9AFCE899F894
:0E09F7000FD5F0DAE4CDFBE4CCFAE4C8F92227
:100CE100C2D5E830E70FB2D5E4C39BFBE49AFAE43E
:100CF10099F9E498F8EC30E717B2D5120D171209FB
:100D010073E4C39BFBE49AFAE499F9E498F880034D
:100D110012097330D50DE4C39FFFE49EFEE49DFDEF
:040D2100E49CFC2230
:00000001FF
