:0B10E6004D6F746F722100202020006D
:100FC9000141000121001E2270786D782B5572783D
:100FD9004C4B52782D443078313233783435367869
:060FE9003738390000005A
:03110A00DFFE22E3
:0A103700AF40121041759006AF4063
:10104100AE07AF061EEF600C7FF512110A7FF51295
:05105100110A80EE22EF
:1010CA0075A0FFC287D286C28500D285E5A03322E9
:0C1056007F381210627F051210417F38B5
:101062001210CA40FBC287C286D2858FA000C285F9
:01107200225B
:1010B9001210CA40FBD287C286D2858FA000C28592
:0110C9002204
:0A10F1007F011210627F050210411A
:100FF000AE07ED7005EE24808003EE24C0FF1210D2
:1010000062120ADFFF600C1210B9740129F9E43A88
:04101000FA80EE2252
:10107300AE07AC03ED7005EE24808003EE24C0FFC1
:08108300121062AF040210B963
:101014001210567F051210411210567F08121062EA
:101024007F011210627F061210621F1210417F0CA2
:0310340002106245
:100F9E00AB07AD21AF411210730541E54175F0105D
:100FAE00120ABD2521FF75F002120ABD85F021E55A
:0B0FBE004175F010120ABD85F04122C1
:040F24008F1CAA056F
:100F2800EB540FF51EEBC4540FF51DE4F9741D299D
:100F3800F8E6C36480948A741D500829F874302632
:100F4800F6800629F8745726F6E51C29FFAD0274C9
:0C0F58001D29F8E6FB12107309B902D144
:010F6400226A
:100EB1008F0F8D10E4F511E47B0AFAF9F8AF0EAE4D
:100EC1000DAD0CAC0B120B34EB2430FF7412251159
:100ED100F8A607AF0EAE0DAD0CAC0BE47B0AFAF928
:100EE100F8120B348F0E8E0D8D0C8C0B0511E4FF57
:100EF100FEFDFCAB0EAA0DA90CA80BD3120BD4500E
:100F0100B6E4F9E9C395115019E50F29FFE9FDE5AB
:100F110011C39DFD74112DF8E6FBAD10121073097C
:020F210080E16D
:010F230022AB
:080F65008F578E568D558C54F8
:100F6D00AF57AE56AD55AC54E47B0AFAF9F8120BF7
:100F7D00348F578E568D558C540558E4FFFEFDFC6D
:100F8D00AB57AA56A955A854D3120BD450D2AF586B
:010F9D002231
:040BE5008F468D4763
:100BE900E4755001F54FF54EF54DAF4BAE4AAD49A1
:100BF900AC48120A3C8F508E4F8D4E8C4D8F0E8E05
:100C09000D8D0C8C0BAD47AF46120EB1AF50AE4FE8
:100C1900AD4EAC4D120F658F52E5462552FF7B2E26
:100C2900AD47121073AF4BAE4AAD49AC48C004C0D2
:100C390005C006C007AF50AE4FAD4EAC4DE412092A
:100C4900FEA804A905AA06AB07D007D006D005D08F
:100C5900041208038F4B8E4A8D498C48E4F551E5FF
:100C690051C3954C5066AF4BAE4AAD49AC48E4FB15
:100C7900FA792078411208F88F4B8E4A8D498C48B1
:100C8900120A3C8F53E5462552042551FFE55324AA
:100C990030FBAD47121073AF4BAE4AAD49AC48C0FB
:100CA90004C005C006C007AC53E4120A08A804A989
:100CB90005AA06AB07D007D006D005D00412080351
:0C0CC9008F4B8E4A8D498C48055180935A
:010CD50022FC
:0C10DA00D2AFD2AAD28A758910C20022BF
:07110300AE071FEE70FA2297
:03001300020CD606
:100CD600C0E0C0D075D000C000C004C005C006C0CA
:010CE6000706
:100CE700758B00758D00D28E20B30F7F0A1211030A
:100CF700E58DD3942840F1020D86C28EE58DC3940D
:100D07001E407C758D00D28E30B30E7F0A12110300
:100D1700E58DD3941940F18066E4FDE4FC758D0000
:100D2700D28E20B30E7F0A121103E58DD3940F40A4
:100D3700F1804C758D0030B30E7F0A121103E58DDB
:100D4700D3940F40F18038C28E74422DF8C000E66C
:100D5700C313D000F6E58DD39404400874422DF8F0
:100D6700E64480F60CBC08B50DED640470ADE544AF
:0F0D77002545FFE433FEEFF44E7002D200C28F29
:0F0D8600D007D006D005D004D000D0D0D0E032B6
:0810FB0074222544F8E6FF22EF
:10108B00AF4012104175900312103775900CAF40A2
:07109B0012104175900922BB
:1010A200AF40121041759009AF4012104175900C7B
:0710B20012103775900322B4
:100D9500D201E4F5901210147BFF7A1079E6E4FD98
:100DA500FF120FF01210DA75400A3001051210A279
:080DB500800312108B3000F2E4
:100DBD001210FB8F08E50824D5602324FE60232440
:100DCD00E9600C24D26026241D7024740A8009E584
:100DDD0040D3940B401974F62540F5408011054021
:100DED00800DE540D39402400615408002B2017B90
:100DFD00FF7A1079ED7D017F05120FF0E485400E2D
:100E0D00F50DF50CF50B7F05120EB1AB087D017FCD
:060E1D0008121073C20070
:020E2300808AC3
:10080000020AA8E86480F8E933E83360110460F074
:10081000ED33EC337009E8FCE9FDEAFEEBFF22045E
:1008200060DED3EB9FEA9EE99DE8C2E78CF0C2F759
:1008300095F0400CE8CCF8E9CDF9EACEFAEBCFFB25
:10084000120A7385D0F05804700320D5B3E8047001
:10085000075002B2D5020AB292D5EC0460F7E4CC9C
:10086000C0E0C398F8603B94186008400DD0E0FBEE
:10087000020A8AE4FBFAC9FC8028E830E406E4C9ED
:10088000FBE4CAFCE830E305E4C9CACBFCE8540742
:100890006010F8C3E913F9EA13FAEB13FBEC13FC4D
:1008A000D8F130F52FC3E49CFCEF9BFFEE9AFEEDF0
:1008B00099FDD0E0FBEF4E4D4C701222DB03020A93
:1008C000AFEC2CFCEF33FFEE33FEED33FDED30E704
:1008D000EB020A8AEF2BFFEE3AFEED39FDD0E0FB8A
:1008E00050130BBB0003020AB2ED13FDEE13FEEF33
:0808F00013FFEC13FC020A8A5D
:1008F800EC4D6011E8497017ED33EC3304600DE4FA
:10090800FCFFFEFD22E933E8330470F8020AA8125E
:100918000A7358046009E4CC24815006285009025F
:100928000AB2284003020AAFC0E0EB4A7044B9801B
:1009380006D0E0FB020A9EEF4E701CBD8008EBFF5C
:10094800EAFEE9FD80EBE98DF0A4FEE5F00209E19D
:10095800E9CDF9EAFEEBFFEF89F0A4FCE5F0CE89DA
:10096800F0A42EFFE435F0CD89F0A42DFEE435F097
:100978008067EF4E7005BD80D780C3EF8BF0A4ACC5
:10098800F0EE8BF0A42CFCE435F0F8EF8AF0A42C00
:10099800E5F038FCE433CB8DF0A42CFCE5F03BF813
:1009A800EE8AF0A42CFCE5F038F8E433CF89F0A403
:1009B8002CFCE5F038CF3400CE89F0A42FFFE5F009
:1009C8003EFEE433C98DF0A42EFEE5F039CD8AF061
:1009D800A42FFFE5F03EFEE43DFD33D0E0FB5007D9
:1009E8000BBB000F020AB2EC2CFCEF33FFEE33FE18
:0609F800ED33FD020A8A46
:1009FE0075F020800E75F010800575F0087D007E74
:100A0E00007F003392D530D503120BC6EC33401065
:100A1E00EF33FFEE33FEED33FDEC33FCD5F0ED227C
:0E0A2E00E5F0247EA2D513CC92E7CDCEFF22B8
:100A3C00EDD2E7CD33EC3392D524814006E4FFFEB2
:100A4C00FDFC22FCE4CFCECDCC24E0501174FF8011
:100A5C00EDC3CC13CCCD13CDCE13CECF13CF0470AE
:070A6C00F030D5DE020BC6DD
:100A7300E9D2E7C933E833F892D5EDD2E7CD33ECC9
:070A830033FC5002B2D52242
:100A8A00EC30E7100FBF000C0EBE00080DBD0004CD
:100A9A000BEB6014A2D5EB13FCED92E7FD2274FF79
:100AAA00FCFDFEFF22E480F8A2D574FF13FC7D80D2
:030ABA00E480EFE6
:03000000020E25C8
:0C0E2500787FE4F6D8FD758158020E6C51
:100ABD00C2D530F707B2D563F0FF05F030E70CB2C1
:100ACD00D5F4048463F0FF05F080018430D502F481
:020ADD000422F1
:100ADF00BB010689828A83E0225002E722BBFE0215
:090AEF00E32289828A83E4932248
:100AF80075F008758200EF2FFFEE33FECD33CDCCB5
:100B080033CCC58233C5829BED9AEC99E582984037
:100B18000CF582EE9BFEED9AFDEC99FC0FD5F0D614
:100B2800E4CEFBE4CDFAE4CCF9A88222B800C1B93E
:100B38000059BA002DEC8BF084CFCECDFCE5F0CB7C
:100B4800F97818EF2FFFEE33FEED33FDEC33FCEBB5
:100B580033FB10D703994004EB99FB0FD8E5E4F970
:100B6800FA227818EF2FFFEE33FEED33FDEC33FC5D
:100B7800C933C910D7059BE99A4007EC9BFCE99A51
:100B8800F90FD8E0E4C9FAE4CCFB2275F010EF2F96
:100B9800FFEE33FEED33FDCC33CCC833C810D70796
:100BA8009BEC9AE899400AED9BFDEC9AFCE899F8D1
:0E0BB8000FD5F0DAE4CDFBE4CCFAE4C8F92264
:0E0BC600C3E49FFFE49EFEE49DFDE49CFC2240
:100BD400EB9FF5F0EA9E42F0E99D42F0E89C45F077
:010BE40022EE
:100E3100020D95E493A3F8E493A34003F68001F235
:100E410008DFF48029E493A3F85407240CC8C333C2
:100E5100C4540F4420C8834004F456800146F6DF91
:100E6100E4800B0102040810204080900FC9E47E49
:100E7100019360BCA3FF543F30E509541FFEE49386
:100E8100A360010ECF54C025E060A840B8E493A34D
:100E9100FAE493A3F8E493A3C8C582C8CAC583CA78
:100EA100F0A3C8C582C8CAC583CADFE9DEE780BE30
:010FEF000001
:00000001FF
