:060C3500536F756E6400B0
:100B12000142000121001E2270786D782B557278F7
:100B22004C4B52782D443078313233783435367824
:060B320037383900000015
:030C3B00DFFE22B7
:100BDA00AE07AF061EEF600C7FF5120C3B7FF512D5
:050BEA000C3B80EE222F
:100C00007580FFC2B7D2B6C2B500D2B5E580332237
:0C0BA5007F38120BB17F05120BDA7F388D
:100BB100120C0040FBC2B7C2B6D2B58F8000C2B5DD
:010BC1002211
:100BEF00120C0040FBD2B7C2B6D2B58F8000C2B58F
:010BFF0022D3
:0A0C1C007F01120BB17F05020BDA15
:100B5E00AE07ED7005EE24808003EE24C0FF120B6D
:100B6E00B1120822FF600C120BEF740129F9E43A5E
:040B7E00FA80EE22E9
:100BC200AE07AC03ED7005EE24808003EE24C0FF77
:080BD200120BB1AF04020BEF9E
:100B8200120BA57F05120BDA120BA57F08120BB10F
:100B92007F01120BB17F06120BB11F120BDA7F0C11
:030BA200020BB192
:100AE700AB07AD21AF42120BC20542E54275F010CC
:100AF7001208002521FF75F00212080085F021E594
:0B0B07004275F01012080085F0422239
:060A33008B088A09890A04
:100A3900E4F50BF50CAB07AA067C007D0AAF03AE03
:100A49000212085DED2430FF740D250BF8A6077C12
:100A5900007D0AAF03AE0212085DAA06AB07050BBB
:100A6900D3EB9400EA6480948050CEE50BD39400D4
:100A7900401B740C250BF8E6AB08AA09A90A850CDA
:100A89008275830012083B050C150B80DEAB08AAA2
:0D0A990009A90A850C82758300E402083B60
:040AA6008F17AA05F7
:100AAA00EB540FF519EBC4540FF518E4F97418292F
:100ABA00F8E6C36480948A7418500829F8743026BA
:100ACA00F6800629F8745726F6E51729FFAD027451
:0C0ADA001829F8E6FB120BC209B902D182
:010AE60022ED
:0C0C1000D2AFD2AAD28A758910C200228D
:070C2E00AE071FEE70FA2271
:030013000208E8F8
:1008E800C0E0C0D075D000C000C004C005C006C0BC
:0108F80007F8
:1008F900758B00758D00D28E20B30F7F0A120C2ED6
:10090900E58DD3942840F1020998C28EE58DC394F0
:100919001E407C758D00D28E30B30E7F0A120C2ECC
:10092900E58DD3941940F18066E4FDE4FC758D00F2
:10093900D28E20B30E7F0A120C2EE58DD3940F4070
:10094900F1804C758D0030B30E7F0A120C2EE58DA7
:10095900D3940F40F18038C28E74432DF8C000E65D
:10096900C313D000F6E58DD39404400874432DF8E1
:10097900E64480F60CBC08B50DED640470ADE545A0
:0F0989002546FFE433FEEFF44E7002D200C28F1A
:0F099800D007D006D005D004D000D0D0D0E032A8
:080C260074222545F8E6FF22C7
:100B3900120B82120C107BFF7A0C7935E4FDFF123F
:100B49000B5E3000FDC200120C26AB07E4FD7F07E7
:050B5900120BC280ED4B
:030000000209A74B
:0C09A700787FE4F6D8FD7581460209EE69
:10080000C2D530F707B2D563F0FF05F030E70CB280
:10081000D5F4048463F0FF05F080018430D502F440
:020820000422B0
:10082200BB010689828A83E0225002E722BBFE02D4
:09083200E32289828A83E4932207
:10083B00F8BB010DE58229F582E5833AF583E8F0F3
:10084B00225006E92582C8F622BBFE05E92582C89F
:02085B00F22287
:10085D00C2D5EC30E709B2D5E4C39DFDE49CFCEEB6
:10086D0030E715B2D5E4C39FFFE49EFE120893C393
:10087D00E49DFDE49CFC800312089330D507C3E48E
:06088D009FFFE49EFE2225
:1009B300020B39E493A3F8E493A34003F68001F216
:1009C30008DFF48029E493A3F85407240CC8C33345
:1009D300C4540F4420C8834004F456800146F6DF14
:1009E300E4800B0102040810204080900B12E47E87
:1009F300019360BCA3FF543F30E509541FFEE49309
:100A0300A360010ECF54C025E060A840B8E493A3CF
:100A1300FAE493A3F8E493A3C8C582C8CAC583CAFA
:100A2300F0A3C8C582C8CAC583CADFE9DEE780BEB2
:010B380000BC
:10089300BC000BBE0029EF8DF084FFADF022E4CC49
:1008A300F875F008EF2FFFEE33FEEC33FCEE9DEC12
:1008B300984005FCEE9DFE0FD5F0E9E4CEFD22ED58
:1008C300F8F5F0EE8420D21CFEADF075F008EF2FA2
:1008D300FFED33FD4007985006D5F0F222C398FD93
:0508E3000FD5F0EA2230
:00000001FF
